:10000000803119280000203085000B308400000862
:10001000031918280130F800F701F70B0D28F80B29
:100020000C284A30F700F70B13281628800B0A28F3
:10003000080023008C018D0122009201910194019E
:100040009301F03065001030660001302000A100FF
:100050000330A2000230A3000630A4000430A50043
:100060000C30A6000830A7000930A80021000C16AB
:1000700020000C1E5628A9012908073C031C5528FE
:10008000013029078400203085000318850A000804
:10009000AB0021008C0120002B0822008C000530D1
:1000A0002000AB000320A90A3C287B2821008D15E5
:1000B00020008D1D78280830AA002A08003C03186B
:1000C000772801302A02013E840020308500031881
:1000D000850A0008AB0021008C0120002B082200BB
:1000E0008C0005302000AB000320AA035D287B288C
:0A00F0001430AB0003203628630033
:020000040001F9
:04000E00C139FF1ED7
:00000001FF
;PIC16F1827
;CRC=2A1D  CREATED="30-mar.-21 13:23"
